:040000000CEF00F011
:10000800FACF1FF0FBCF20F0E9CF21F077ED0AF00F
:04001800A0EF0CF059
:100D0000286E756C6C290025733A25640A002573DA
:100D10003A25730A00406D00000043044410D8A433
:100D200001D001D010D020EE02F03D50D9263E5027
:100D3000DA22DF50196ED8801934C96E000E446E65
:100D4000060E436E9ED04350060A4410D8A401D02C
:100D500001D006D0C586000E446E050E436E91D0BC
:100D60004350020A4410D8B401D001D007D04350F8
:100D7000050A4410D8A401D001D045D020EE9CF043
:100D80003D50D9263E50DA22DECF19F0DDCF1AF0E1
:100D900019503D241B6E1A503E201C6E040E1B245D
:100DA000D96E000E1C20DA6EC9CFDFFF20EE9CF05A
:100DB0003D50D9263E50DA22DE2A000EDD2220EEFA
:100DC0009CF03D50D9263E50DA2210EE9AF03D506C
:100DD000E1263E50E222E652DE52DD50E518DFCF3A
:100DE000E8FFD8B4E718D8A401D001D006D0C58454
:100DF000000E446E040E436E44D0000E446E060E88
:100E0000436EC5883ED04350040A4410D8A401D094
:100E100001D037D020EEA0F03D50D9263E50DA2246
:100E2000DE50DD10D8B401D001D01CD020EEA0F0EF
:100E30003D50D9263E50DA22DECF11F0DDCF12F040
:100E4000040E3D24136E000E3E20146E20EE9CF026
:100E50003D50D9263E50DA22DECF15F0DDCF16F018
:100E600046EC0CF020EE02F03D50D9263E50DA223E
:100E7000FF0EDE6EFF0EDD6E3D6A3E6A5DEC0FF02A
:100E800000D0120043044410D8A401D001D010D0E7
:100E900020EE02F03D50D9263E50DA22DF50196E86
:100EA000D8801934C96E000E446E060E436E9BD076
:100EB0004350060A4410D8A401D001D006D0C586FC
:100EC000000E446E050E436E8ED04350020A44104D
:100ED000D8B401D001D007D04350050A4410D8A49B
:100EE00001D001D048D020EE9CF03D50D9263E5094
:100EF000DA22DECF19F0DDCF1AF019503D241B6E37
:100F00001A503E201C6E040E1B24D96E000E1C20AD
:100F1000DA6EC9CFDFFF20EE9CF03D50D9263E505F
:100F2000DA22DECF19F0DDCF1AF019503D241B6E06
:100F30001A503E201C6E040E1B24D96E000E1C207D
:100F4000DA6EDF50D8A401D001D006D0C584000EDF
:100F5000446E040E436E05D0000E446E060E436EC2
:100F6000C58820EE9CF03D50D9263E50DA22DE2A7C
:100F7000000EDD2238D04350040A4410D8A401D01A
:100F800001D031D020EEA0F03D50D9263E50DA22DB
:100F9000DE50DD10D8B401D001D016D020EEA0F084
:100FA0003D50D9263E50DA22DECF11F0DDCF12F0CF
:100FB000040E3D24136E000E3E20146E000E166EBD
:100FC0000C0E156E46EC0CF020EE02F03D50D926CA
:100FD0003E50DA22FF0EDE6EFF0EDD6E3D6A3E6A87
:100FE0005DEC0FF000D01200C7A601D001D010D0E8
:100FF000C7B401D001D00CD0C7BA01D001D008D0FD
:10100000C7A001D001D004D0C950C688316A326A65
:10101000C7B601D001D004D0C7A801D001D037D0C5
:10102000C7B401D001D033D0C7AA01D001D02FD08E
:10103000C7A001D001D02BD0C9CF19F01A6A030183
:10104000000E3124D96E030E3220DA6E19C0DFFF94
:1010500031500B0A3210D8A401D001D014D0405026
:101060003F10D8B401D001D00ED03FC011F040C025
:1010700012F0030E146E000E136E000E166E0C0EA0
:10108000156E46EC0CF0314A322AC68855D0C7A6F8
:1010900001D001D026D0C7A401D001D022D0C7BA38
:1010A00001D001D01ED042504110D8B401D001D09F
:1010B0000BD001D809D00500FA6E4150FD6E4250A8
:1010C000FE6EFF6AFA501200336A346AC950030197
:1010D000000E3324D96E030E3420DA6EDF50C96E51
:1010E000D4D7C7A601D001D01AD0C7A401D001D04F
:1010F00016D0C7AA01D001D012D0C7B001D001D0FC
:101100000ED00B0E335C000E3458D8B001D001D095
:1011100003D0334A342ADBD7450EC96EB6D7C7A6EB
:1011200001D001D009D0C7AA01D001D005D0C7B0E5
:1011300001D001D001D000D0120043044410D8A443
:1011400001D001D010D020EE02F03D50D9263E5003
:10115000DA22DF501B6ED8901B34C96E000E446E2D
:10116000020E436E82D04350020A4410D8B401D01C
:1011700001D007D04350030A4410D8A401D001D0B5
:1011800047D020EE9CF03D50D9263E50DA2210EE9A
:101190009AF03D50E1263E50E222E652DE52E55002
:1011A000800A1B6EDD50800A1B5C02E1DF50E75CA9
:1011B000D8B001D001D026D020EE9AF03D50D926EB
:1011C0003E50DA22DECF1BF0DDCF1CF01B503D2459
:1011D0001D6E1C503E201E6E040E1D24D96E000E86
:1011E0001E20DA6EDF50C96E20EE9AF03D50D926EF
:1011F0003E50DA22DE2A000EDD22000E446E030E7F
:10120000436E33D0C584000E446E040E436E2DD061
:101210004350040A4410D8A401D001D026D020EEB7
:10122000A0F03D50D9263E50DA22DE50DD10D8B471
:1012300001D001D00CD020EEA0F03D50D9263E5078
:10124000DA22DECF19F0DDCF1AF037EC12F020EE03
:1012500002F03D50D9263E50DA22FF0EDE6EFF0E20
:10126000DD6E3D6A3E6A5DEC0FF0120076C0D9FF7C
:1012700077C0DAFF10EECFF0080EDECFE6FFE82EE3
:10128000FCD776C0CDF077C0CEF0CDC0D9FFCEC0B0
:10129000DAFF50C0DEFF51C0DDFF20EE02F0CD517D
:1012A000D926CE51DA224BC0DEFF4CC0DDFF20EE46
:1012B00004F0CD51D926CE51DA22D1C0DFFF20EE85
:1012C00005F0CD51D926CE51DA22D2C0DFFF20EE73
:1012D00007F0CD51D926CE51DA22D0C0DFFF20EE63
:1012E00006F0CD51D926CE51DA2252C0DFFF20EED2
:1012F00008F0CD51D926CE51DA22D3C0DFFF20EE3F
:1013000009F0CD51D926CE51DA22D4C0DFFF20EE2C
:101310000AF0CD51D926CE51DA22D5C0DFFF20EE1A
:101320000BF0CD51D926CE51DA22D6C0DFFFD051F5
:10133000D8B401D001D00BD001D809D00500FA6E85
:101340007A51FD6E7B51FE6EFF6AFA501200120058
:10135000D96BDA6BD9C0ABF0DAC0ACF0000EAE6F6F
:10136000160EAD6F33EC11F0960EAB25D96E040E50
:10137000AC21DA6EDE50DD10D8B401D001D045D0FA
:10138000D9C0ABF0DAC0ACF0000EAE6F160EAD6F88
:1013900033EC11F0980EAB25766F040EAC21776F0D
:1013A000D9C0ABF0DAC0ACF0000EAE6F160EAD6F68
:1013B00033EC11F0960EAB25D96E040EAC21DA6E2B
:1013C000DECFD7F0DDCFD8F001D809D00500FA6E16
:1013D000D751FD6ED851FE6EFF6AFA501200D9C087
:1013E000ABF0DAC0ACF0000E0001AE6F160EAD6FC0
:1013F00033EC11F0960EAB25D96E040EAC21DA6EEB
:10140000000EDE6E000EDD6E0CD0D94BDA2BDA51F9
:10141000800A800F140ED8B4D95DD8A001D001D0B5
:1014200099D71200B3C0ABF0B4C0ACF0000EAE6FF1
:10143000040EAD6FEDEC0CF0ABC0B3F0ACC0B4F08B
:10144000806701D001D023D0D58ED58CD59AD59682
:10145000D550F80B0409D56EF28AB76BB86BB7514B
:10146000040DF350600FD96EDA6A000EDE6E000EC6
:10147000DD6EB74BB82BB851800A800F040ED8B47C
:10148000B75DD8A001D001D0EAD7010E806FB96B4B
:10149000BA6BB951040DF350600FD96EDA6ADE50A1
:1014A000DD10D8A401D001D015D0B951040DF350EE
:1014B000600FD96EDA6AB5C0DEFFB6C0DDFFB95184
:1014C000040DF350620FD96EDA6AB3C0DEFFB4C008
:1014D000DDFF0CD0B94BBA2BBA51800A800F040E35
:1014E000D8B4B95DD8A001D001D0D3D7120006007E
:1014F000EACF22F0E1CF23F0E2CF24F0D9CF25F0DC
:10150000DACF26F0F6CF27F0F7CF28F0F8CF29F082
:10151000F5CF2AF0F2A401D001D004D0F2949DECD2
:1015200012F024D09EA601D001D012D09E963A503F
:101530003910D8B401D001D002D0F4EC07F04650F5
:101540004510D8B401D001D011D0DAEC10F00ED093
:101550009EAA01D001D003D0D6EC0FF007D09EA8F0
:1015600001D001D003D03BEC0EF000D030502F1052
:10157000D8B401D001D006D0000E026E070E016E65
:1015800079EC12F02AC0F5FF29C0F8FF28C0F7FF58
:1015900027C0F6FF26C0DAFF25C0D9FF24C0E2FF2E
:1015A00023C0E1FF22C0EAFF21C0E9FF20C0FBFF0A
:1015B0001FC0FAFF110001010229D8B40329D8A4E1
:1015C00001D001D025D0BBC002F1BCC003F1010E97
:1015D0000001B26F0101040E0001B16FBDC0B3F094
:1015E000BEC0B4F0BFC0B5F0C0C0B6F0A6EC0EF0FF
:1015F00001019A6B9B6BBFC09CF1C0C09DF1C1C043
:10160000A0F1C2C0A1F1000E016F010E006F2CD03D
:1016100002010229D8B40329D8A401D001D024D0D2
:10162000BBC002F2BCC003F29A6B9B6B020E0001BE
:10163000B26F0201040E0001B16FBDC0B3F0BEC0B5
:10164000B4F0BFC0B5F0C0C0B6F0A6EC0EF0BFC09D
:101650009CF2C0C09DF2C1C0A0F2C2C0A1F2000EB7
:101660000201016F010E006F32EC0FF0120076C024
:10167000D9FF77C0DAFF53C0E1FF54C0E2FFDFCFEC
:10168000E7FF534A542A0101A20E535C196E010E62
:1016900054581A6E1A50800A800F330ED8B4195C51
:1016A000D8A001D001D004D0010E546EA20E536E0A
:1016B000A20E535C196E010E54581A6E1A50800A0D
:1016C000800F0C0ED8B4195CD8A001D001D029D05D
:1016D0004AC001F0026A8DEC12F04A2AF40E53243B
:1016E000096EFF0E54200A6EADEC11F00A5009107D
:1016F000D8B401D001D015D0240E126EA80E116EF0
:10170000F40E5324136EFF0E5420146E000E166E4A
:101710000C0E156E46EC0CF00101010E546EA20E7B
:10172000536E120076C0C9F077C0CAF0C9C0D9FFA5
:10173000CAC0DAFFDE52AA51DD18A9C0E8FFD8B44A
:10174000DF18D8A401D001D040D072517111D8B4A3
:1017500001D001D01AD020EE06F0C951D926CA51C5
:10176000DA227051DF6201D001D00FD071C0BBF01E
:1017700072C0BCF076C0BDF077C0BEF0000EC06F86
:101780000C0EBF6FECEC0BF026D075517411D8B471
:1017900001D001D020D020EE06F0C951D926CA517F
:1017A000DA227351DF6201D001D015D074C0BBF0D2
:1017B00075C0BCF076C0BDF077C0BEF0000EC06F43
:1017C0000C0EBF6FECEC0BF006D0C9C0C7F0CAC05E
:1017D000C8F024EC10F01200C16BC26BC1C0ABF0BA
:1017E000C2C0ACF0000EAE6F160EAD6F33EC11F050
:1017F000960EAB25D96E040EAC21DA6EDE50DD10EC
:10180000D8A401D001D02FD0C1C0ABF0C2C0ACF081
:10181000000EAE6F160EAD6F33EC11F0980EAB25C7
:10182000B16F040EAC21B26FBDC0B3F0BEC0B4F056
:10183000BFC0B5F0C0C0B6F0A6EC0EF0C1C0ABF0B2
:10184000C2C0ACF0000EAE6F160EAD6F33EC11F0EF
:10185000960EAB25D96E040EAC21DA6EBBC0DEFF4E
:10186000BCC0DDFF12D0C14BC22BC251800A800F19
:10187000140ED8B4C15DD8A001D001D0AFD7000EEE
:10188000AC6F070EAB6F6EEC12F01200176A186A9D
:1018900017C001F018C002F0000E046E160E036EA1
:1018A0004EEC11F0960E0124D96E040E0220DA6E71
:1018B000DE50DD10D8A401D001D02FD017C001F028
:1018C00018C002F0000E046E160E036E4EEC11F0FE
:1018D000980E0124076E040E0220086E13C009F052
:1018E00014C00AF015C00BF016C00CF004EC0FF099
:1018F00017C001F018C002F0000E046E160E036E41
:101900004EEC11F0960E0124D96E040E0220DA6E10
:1019100011C0DEFF12C0DDFF12D0174A182A18507E
:10192000800A800F140ED8B4175CD8A001D001D063
:10193000AFD7000E026E070E016E79EC12F01200A6
:1019400004EE96F011EEB8F0EE6AE550E150FCE1DD
:10195000E250FAE104EE00F0960EEE6AE806FDE1D0
:1019600003EE00F0FA0EEE6AE806FDE102EE00F08A
:10197000A20EEE6AE806FDE101EE00F0D40EEE6A7A
:10198000E806FDE100EE60F04B0EEE6AE806FDE1D0
:1019900000EE2BF0280EEE6AE806FDE1980EF66EDA
:1019A000250EF76E000EF86E00EEDBF010EE06F07E
:1019B0000900F5CFEEFFE550E150FAE1A20EF66E18
:1019C000250EF76E000EF86E0900F5CF53F00900F2
:1019D000F5CF54F0000198EF11F0B06BAEAF01D02D
:1019E00001D006D0AD6DAE1FD8B0AE2B010EB06FDA
:1019F000ACAF01D001D006D0AB6DAC1FD8B0AC2BD2
:101A0000010EB01BB16BB26BAE51AD11D8B401D0A9
:101A100001D020D0010EAF6F04D0D890AD37AE37D3
:101A2000AF2BAEAF01D001D0F8D7D890B137B237D5
:101A3000AD51AB5DAE51AC59D8A001D001D005D0AD
:101A4000AD51AB5FAE51AC5BB181D890AE33AD332D
:101A5000AF2FEBD7B051D8B401D001D004D0B16DC5
:101A6000B21FD8B0B22BB1C0ABF0B2C0ACF0120014
:101A7000B36BB46BB351040DF350600FD96EDA6AD7
:101A8000DE50DD10D8B401D001D02BD02DC0ABF08A
:101A90002EC0ACF0B351040DF350620FD96EDA6A68
:101AA000DECFADF0DDCFAEF081EC0DF0AC51AB117F
:101AB000D8A401D001D015D0B351040DF350600F5C
:101AC000D96EDA6ADECFB1F0DDCFB2F001D809D03D
:101AD0000500FA6EB151FD6EB251FE6EFF6AFA500A
:101AE00012000001B34BB42BB451800A800F040ED6
:101AF000D8B4B35DD8A001D001D0BCD72D4A2E2ACE
:101B00001200B06BACAF01D001D006D0AB6DAC1FF2
:101B1000D8B0AC2B010EB06FAEAF01D001D004D065
:101B2000AD6DAE1FD8B0AE2BAE51AD11D8B401D053
:101B300001D01CD0010EAF6F04D0D890AD37AE37B6
:101B4000AF2BAEAF01D001D0F8D7AD51AB5DAE51E8
:101B5000AC59D8A001D001D004D0AD51AB5FAE518B
:101B6000AC5BD890AE33AD33AF2FEFD7B051D8B414
:101B700001D001D004D0AB6DAC1FD8B0AC2BABC042
:101B8000ABF0ACC0ACF0120001010229D8B40329BB
:101B9000D8A401D001D016D0ABC002F1ACC003F183
:101BA0009C6B9D6BADC09AF1AEC09BF1AFC0A0F134
:101BB000B0C0A1F1006B016B046B000E9F6F010EB2
:101BC0009E6F1DD002010229D8B40329D8A401D0E8
:101BD00001D015D0ABC002F2ACC003F29C6B9D6B80
:101BE000ADC09AF2AEC09BF2AFC0A0F2B0C0A1F2FD
:101BF000006B016B046B000E9F6F010E9E6F32EC49
:101C00000FF012007D517C11D8A401D001D017D063
:101C10000301030E0001B26F0301960E0001B16FC4
:101C2000BBC0B3F0BCC0B4F0BDC0B5F0BEC0B6F030
:101C3000A6EC0EF0BDC07CF0BEC07DF018D0030154
:101C4000960E00017C25B16F0301030E00017D217A
:101C5000B26FBBC0B3F0BCC0B4F0BDC0B5F0BEC085
:101C6000B6F0A6EC0EF0BD517C27BE517D239D88B9
:101C7000786B796B1200000179517811D8B401D0DA
:101C800001D002D09D982DD0FF0E7C25016EFF0E55
:101C90007D21026E4850021802E147500118D8A475
:101CA00001D001D013D00301960E4724D96E030E44
:101CB0004820DA6EDF50AD6E476A486A00017C6BDF
:101CC0007D6B000E796F010E786F0BD00301960EBD
:101CD0004724D96E030E4820DA6EDF50AD6E474AB6
:101CE000482A12004E504D10D8B401D001D013D064
:101CF0004F50D8B401D001D00ED04DC0ABF04EC083
:101D0000ACF0000EAE6F080EAD6F120EB06F6C0E21
:101D1000AF6FC4EC0DF00001A451A311D8B401D0F1
:101D200001D013D0A551D8B401D001D00ED0A3C09A
:101D3000ABF0A4C0ACF0000EAE6F080EAD6F250E78
:101D4000B06FA40EAF6FC4EC0DF01200B3C0B9F0C9
:101D5000B4C0BAF0B1C0B7F0B2C0B8F01BD0B9C0CF
:101D6000F6FFBAC0F7FF000EF86EB7C0D9FFB8C0D3
:101D7000DAFF0C0EF76403D00800F55005D0F6CF5B
:101D8000E9FFF7CFEAFFEF50DF6E0001B94BBA2B46
:101D9000B74BB82BB507D8A0B6070001B529D8B402
:101DA000B629D8A401D001D0DAD7120076C0CEF07F
:101DB00077C0CFF020EE07F0CE51D926CF51DA22EE
:101DC000DF50CA6F20EE08F0CE51D926CF51DA226B
:101DD000DF50CB6F20EE09F0CE51D926CF51DA2259
:101DE000DF50CC6F20EE0AF0CE51D926CF51DA2247
:101DF000DF50CD6FCBC0C6F0CCC0C7F0CDC0C8F0AF
:101E0000CA516EEC10F0120009C00FF00AC010F0B9
:101E100007C00DF008C00EF01AD00FC0F6FF10C0BA
:101E2000F7FF000EF86E0DC0D9FF0EC0DAFF0C0EE2
:101E3000F76403D00800F55005D0F6CFE9FFF7CFDF
:101E4000EAFFEF50DF6E0F4A102A0D4A0E2A0B06EA
:101E5000D8A00C060B28D8B40C28D8A401D001D0E7
:101E6000DCD712003E503D10D8A401D001D024D0C0
:101E700001010229D8B40329D8B401D001D005D07A
:101E8000010E3E6E000E3D6E0CD002010229D8B448
:101E90000329D8B401D001D004D0020E3E6E000E4A
:101EA0003D6E3E503D10D8B401D001D005D0000E9B
:101EB000446E010E436EC58012003E503D10D8A402
:101EC00001D001D024D001010229D8B40329D8B40B
:101ED00001D001D005D0010E3E6E000E3D6E0CD03B
:101EE00002010229D8B40329D8B401D001D004D00A
:101EF000020E3E6E000E3D6E3E503D10D8B401D035
:101F000001D005D0000E446E010E436EC580120054
:101F1000E8CFBBF0000EB26FA90EB16FBBC0B3F03B
:101F20000D0EB46F000EB66F020EB56FA6EC0EF07C
:101F3000210EAC6FF20EAB6FB8EC12F0210EAC6F4D
:101F4000F20EAB6F84EC12F0210EAC6FF20EAB6FA1
:101F5000BDEC12F0716B726B746B756B1200ABC0E1
:101F6000B1F0ACC0B2F020EE03F0B151D926B251BD
:101F7000DA22DF50AD6F20EE02F0B151D926B25116
:101F8000DA22DF50AE6F20EE01F0B151D926B25106
:101F9000DA22DF50AF6FB1C0D9FFB2C0DAFFDF5035
:101FA000AF25AE25AD25B06FB0511200AECF49F0D0
:101FB000ABA201D001D003D0AB98AB881DD0ABA4AD
:101FC00001D001D002D0AECF49F036503510D8B490
:101FD00001D001D011D076C0D9FF77C0DAFF49C057
:101FE000DFFF01D809D00500FA6E3550FD6E36507E
:101FF000FE6EFF6AFA501200120001C007F002C024
:1020000008F020EE03F00750D9260850DA22DF50FE
:10201000036E20EE02F00750D9260850DA22DF5076
:10202000046E20EE01F00750D9260850DA22DF5066
:10203000056E07C0D9FF08C0DAFFDF50052404246D
:102040000324066E06501200C7C0B3F0C8C0B4F037
:1020500009EC12F0C7C0C3F0C8C0C4F0A4EC12F081
:10206000C451C311D8B401D001D012D0C7C0BBF045
:10207000C8C0BCF0B7EC10F0BC51BB11D8B401D053
:1020800001D006D0C7C0BFF0C8C0C0F0D3EC12F07A
:102090001200E8CFADF0ADC0F6FF0D0EF76E000EEA
:1020A000F86E0800F5CFAEF072517111D8A401D0CE
:1020B00001D007D0ABC071F0ACC072F0AEC070F010
:1020C0000CD075517411D8A401D001D006D0ABC08A
:1020D00074F0ACC075F0AEC073F01200E8CFC9F078
:1020E000D890C633D890C833C96701D001D006D084
:1020F000C6C0BFF0050E69EC11F005D0C6C0BFF038
:10210000040E69EC11F0C76701D001D006D0C8C039
:10211000BFF0010E69EC11F005D0C8C0BFF0000E91
:1021200069EC11F012000001B16BB26BB1C0ABF001
:10213000B2C0ACF0000EAE6F160EAD6F33EC11F006
:10214000960EAB25D96E040EAC21DA6E000EDE6E53
:10215000000EDD6EB14BB22BB251800A800F140E0F
:10216000D8B4B15DD8A001D001D0E0D71200E051C1
:10217000DF11D8B401D001D018D07F517E11D8B46E
:1021800001D001D012D0000EB26F950EB16FBBC05E
:10219000B3F0BCC0B4F0000EB66F0C0EB56FA6EC79
:1021A0000EF0000E386E010E376E000EBC6F010E81
:1021B000BB6F12003DC0D9FF3EC0DAFFDE50DD101C
:1021C000D8B401D001D003D09DEC08F011D020EE9E
:1021D0009EF03D50D9263E50DA22DE50DD10D8B4B4
:1021E00001D001D003D08DEC06F002D042EC07F014
:1021F000120076C0CBF077C0CCF0400ECBC0D9FF38
:10220000CCC0DAFFDF6201D001D003D092EC0BF03A
:102210000BD0230ECBC0D9FFCCC0DAFFDF6201D0D8
:1022200001D002D0D4EC12F096EC12F0120038502B
:102230003710D8B401D001D009D0000E126E0C0EA8
:10224000116E0001950EF8EC11F00AD00001956BAB
:10225000966B000E126E0C0E116E950EF8EC11F0CE
:10226000376A386A1200AF6BB06BABA101D001D0F6
:1022700004D0AD51AF27AE51B023D890AD37AE37B3
:10228000D890AC33AB33AC51AB11D8A401D001D052
:10229000ECD7AFC0ABF0B0C0ACF01200056A066A74
:1022A00001A001D001D004D003500526045006221D
:1022B000D89003360436D890023201320250011011
:1022C000D8A401D001D0ECD705C001F006C002F0BF
:1022D0001200E8CFC4F0820EC06FC4C0C1F0BFC00E
:1022E000C2F0C451BF25820F7F0BC36F000EBC6FBD
:1022F000C00EBB6F000EBE6F040EBD6F02EC0EF081
:102300001200000E7F6F010E7E6FADC0ABF0AEC04D
:10231000ACF0D5EC11F0220EAC6F2E0EAB6FC2EC10
:1023200012F0240EAC6F8C0EAB6FC7EC12F01200E3
:10233000700ED312CFEC12F019EC12F093EC10F0F7
:10234000C2EC11F0F28EF28C62EC12F0D5EC12F0CD
:10235000A8EC09F0FBD70CEF00F020EE04F00950D8
:10236000D9260A50DA22DF500B6E09C001F00AC0EC
:1023700002F0FDEC0FF00B18000ED8B4010E096E40
:102380000A6A1200150E88EC0FF0000EAE6F5F0E99
:10239000AD6F81EC11F01D0EAC6FAC0EAB6F160E75
:1023A00049EC10F028EC12F01200000E3A6E010E0B
:1023B000396E94869488AB51AB25C86EC79EC69083
:1023C000C682C684C686C580C68A9D8612003C50D9
:1023D0003B10D8A401D001D00AD08050F80B2B10AC
:1023E000896E2B4A2C2A070E2B16000E2C16120073
:1023F000E8CF13F00301030E086E000E076E13C042
:1024000009F00A6A11C00BF012C00CF004EC0FF0D6
:102410001200B3C0ABF0B4C0ACF0AFEC0FF0B56FCE
:1024200020EE04F0B351D926B451DA22B5C0DFFF53
:102430001200AC9CAC8AAC98AC84B886220EAF6E0D
:10244000948E948CAB9CAB8EAB98AB889E9812000C
:10245000AB8E948E948CAC9CAC8AAC98AC86AB88DA
:10246000AC94B886330EAF6E9D989D8A120019C049
:1024700011F01AC012F0000E146E000E136E000E52
:10248000166E000E156E46EC0CF01200DF6BE06B62
:1024900001D809D00500FA6E7A51FD6E7B51FE6EAF
:1024A000FF6AFA5012001200DB6BDC6B01D809D016
:1024B0000500FA6E7A51FD6E7B51FE6EFF6AFA508E
:1024C00012001200926A000EB46FC80EB36F230E92
:1024D000B66FCE0EB56F12EC0AF01200000E306E21
:1024E000010E2F6E926A8050F80BAB11896EFFD7E8
:1024F0001200000E306E010E2F6E926A8050F80BA3
:102500000110896EFFD71200ABC07AF0ACC07BF02F
:102510004D6A4E6AA36BA46B1200000E3C6E010E56
:102520003B6E8050F80B0110896E1200A9EC12F07E
:10253000AEEC12F0B3EC12F012001A0E1A6E700E1E
:10254000196E37EC12F01200000EC46F010EC36F4B
:102550001200000EDC6F010EDB6F1200000EDE6F4A
:10256000010EDD6F1200000EE06F010EDF6F120032
:10257000ABC07AF0ACC07BF01200ABC07AF0ACC05C
:102580007BF01200ABC041F0ACC042F01200ABC017
:102590003FF0ACC040F01200010001000100936A5E
:0C25A0001200A201120012001200120032
:020000040020DA
:08000000FFFFFFFFFFFFFFFF00
:020000040030CA
:0E000000FF09191EFF8080FF0FC00FE00F40A8
:00000001FF
